:100BFD0020302F30202028302E302900202020209A
:100C0D0020202020202020200028310031300049D4
:100C1D006E636F727265637420746573742E2050E9
:100C2D0061737320636F7272656374206E756D628C
:100C3D0065720D0A00496E6E696E677320697320C7
:100C4D00636F6D706C6574656400496E6E696E6777
:100C5D007320456E647300203030302F30202830E3
:040C6D002E302900FC
:040E0400C101C10067
:100CDF00E4F5A0C282C280C2817F38FE120D9E123F
:100CEF000D6D7F067E00120D9E120D6D7F0C7E0026
:100CFF00120D9E120D6D7F017E00120D9E120D6D55
:070D0F007F807E00020D9EB3
:040D6D007F047E0081
:100D7100E4FDFCC3ED9FEC9E5015E4FBFA0BBB00B8
:0F0D8100010ABA01F8BB7EF50DBD00010C80E43C
:010D90002240
:090C7100FF7B007A00792FAE210F
:100C7A008E6B8F6C8B6D8A6E896F7C037DE8120A8E
:100C8A00F67E007F64CFCDCFCECCCE120AF6EF240B
:100C9A0030120AC2AE6BAF6C7C007D64120AF67E1B
:100CAA00007F0ACFCDCFCECCCE120AF6EF2430ABDE
:100CBA006DAA6EA96F900001120AD4AE6BAF6C7C5C
:100CCA00007D0A120AF6ED2430AB6DAA6EA96F9068
:050CDA000002020AD433
:060DF800EF2430020AC2E4
:040E0900EF020AC228
:0D0D91007B007A00794D120DF87F8A7E00FC
:100D9E00C280C281D2828FA07F0A7E00120D71C2E4
:020DAE0082229F
:100DC400D280C281D2828FA07F0A7E00120D71C2AE
:020DD400822279
:0D0D16007F827E00120D9E7B007A00792FF7
:100D23008B6B8A6C896DAB6BAA6CA96D120AA96077
:100D330013056DE56D7002056C14F9120AA9FF1213
:050D43000DC480E22256
:100DB000758920E4F5C8F59B758DF37598D0D28EB2
:040DC00075A8902260
:080DF0008F993001FDC20122C0
:100D48008B6B8A6C896DAB6BAA6CA96D120AA96052
:100D580013056DE56D7002056C14F9120AA9FF12EE
:050D68000DF080E22205
:090DE600E4FF3000FDC200AF99EA
:010DEF0022E1
:03002300020DD6F5
:100DD600309905C299D20132309804C298D20032B5
:10080000E4F521F522F5237524C0F525F526F52715
:10081000F528F529F52AF52BF52CF52DF52E120CDA
:10082000DF120DB07F837E00120D9E7BFF7A0B7965
:10083000FD120D23120DE6752D008F2ED3E52894A1
:1008400005E52794004064052AE52A70020529FF82
:10085000AE29120D917B007A00120D237FC07E001D
:10086000120D9E7BFF7A0C7909120D2375230075FA
:1008700024C0D3E52A9409E5299400402974F6257B
:100880002AF52A74FF3529F529AF2AFE120D917B2E
:10089000007A00120D237F887E00120D9E7BFF7A66
:1008A0000C7916120D23E4F527F528E52D600302D7
:1008B0000A1AE52E120B4B09F62E08D93108EB3235
:1008C000090033091534092A35093F3609654509F8
:1008D000DE4E097E5700000A1A0522E52270020545
:1008E000210528E528706B0527806774022522F50D
:1008F00022E43521F5210528E528700205278052DC
:1009000074032522F522E43521F5210528E5287018
:10091000020527803D74042522F522E43521F521C6
:100920000528E52870020527802874052522F52270
:10093000E43521F5210528E5287002052780137488
:10094000062522F522E43521F5210528E528700247
:100950000527AF22120C72120D167B007A00794324
:10096000AF28020A050522E52270020521120C714A
:10097000120D16E52C152C7002152B020A230526E4
:10098000E526700205250528E528700205277B006D
:100990007A007961AF26AE25120DF87F867E0012AF
:1009A0000D9E7B007A00120D237B007A007943AF05
:1009B00028AE27120DF87F8C7E00120D9E7B007AE8
:1009C00000120D23D3E5269409E525940040547FB9
:1009D000867E00120D9E7BFF7A0C791980370522E6
:1009E000E52270020521120C71120D16E52C152C52
:1009F0007031152B802D0528E528700205277B0016
:100A00007A007943FFAE27120DF87F8C7E00120D1D
:100A10009E7B007A00120D2380097BFF7A0C791CE3
:100A2000120D48052CE52C7002052BD39477E52B8D
:100A300094004002800BD3E5269409E525940040FC
:100A4000407BFF7A0C7942120D487FC07E00120D68
:100A50009E7BFF7A0C7957120D237F887E13120D2F
:100A600071E4F529F52AF525F526F527F528F52170
:100A7000F5227F83FE120D9E7BFF7A0C7964020DB6
:100A8000230524E52470020523FFAE23120D9E7B6F
:100A9000007A007957AF2EAE2D120E09120D237F6A
:090AA000647E00120D710208349D
:060DFE00120800020800CB
:03000000020B717F
:0C0B7100787FE4F6D8FD75816F020BB8A8
:100AA900BB010689828A83E0225002E722BBFE024B
:090AB900E32289828A83E493227E
:100AC200BB010689828A83F0225002F722BBFE0113
:020AD200F3220D
:100AD400F8BB010DE58229F582E5833AF583E8F058
:100AE400225006E92582C8F622BBFE05E92582C804
:020AF400F222EC
:100AF600BC000BBE0029EF8DF084FFADF022E4CCE4
:100B0600F875F008EF2FFFEE33FEEC33FCEE9DECAC
:100B1600984005FCEE9DFE0FD5F0E9E4CEFD22EDF2
:100B2600F8F5F0EE8420D21CFEADF075F008EF2F3C
:100B3600FFED33FD4007985006D5F0F222C398FD2D
:050B46000FD5F0EA22CA
:100B4B00D083D082F8E4937012740193700DA3A339
:100B5B0093F8740193F5828883E47374029368604D
:060B6B00EFA3A3A380DF4D
:100B7D00020DFEE493A3F8E493A34003F68001F283
:100B8D0008DFF48029E493A3F85407240CC8C33379
:100B9D00C4540F4420C8834004F456800146F6DF48
:100BAD00E4800B0102040810204080900E04E47EC6
:100BBD00019360BCA3FF543F30E509541FFEE4933D
:100BCD00A360010ECF54C025E060A840B8E493A304
:100BDD00FAE493A3F8E493A3C8C582C8CAC583CA2F
:100BED00F0A3C8C582C8CAC583CADFE9DEE780BEE7
:010E080000E9
:00000001FF
